{
  "contractName": "NiftyArt",
  "abi": [
    {
      "constant": true,
      "inputs": [],
      "name": "ceoAddress",
      "outputs": [
        {
          "name": "",
          "type": "address"
        }
      ],
      "payable": false,
      "stateMutability": "view",
      "type": "function"
    },
    {
      "constant": false,
      "inputs": [
        {
          "name": "_newCEO",
          "type": "address"
        }
      ],
      "name": "setCEO",
      "outputs": [],
      "payable": false,
      "stateMutability": "nonpayable",
      "type": "function"
    },
    {
      "constant": false,
      "inputs": [
        {
          "name": "_newCOO",
          "type": "address"
        }
      ],
      "name": "setCOO",
      "outputs": [],
      "payable": false,
      "stateMutability": "nonpayable",
      "type": "function"
    },
    {
      "constant": false,
      "inputs": [],
      "name": "unpause",
      "outputs": [],
      "payable": false,
      "stateMutability": "nonpayable",
      "type": "function"
    },
    {
      "constant": true,
      "inputs": [],
      "name": "paused",
      "outputs": [
        {
          "name": "",
          "type": "bool"
        }
      ],
      "payable": false,
      "stateMutability": "view",
      "type": "function"
    },
    {
      "constant": false,
      "inputs": [],
      "name": "pause",
      "outputs": [],
      "payable": false,
      "stateMutability": "nonpayable",
      "type": "function"
    },
    {
      "constant": true,
      "inputs": [],
      "name": "cooAddress",
      "outputs": [
        {
          "name": "",
          "type": "address"
        }
      ],
      "payable": false,
      "stateMutability": "view",
      "type": "function"
    },
    {
      "anonymous": false,
      "inputs": [
        {
          "indexed": false,
          "name": "tokenId",
          "type": "uint256"
        },
        {
          "indexed": false,
          "name": "name",
          "type": "string"
        },
        {
          "indexed": false,
          "name": "link",
          "type": "string"
        },
        {
          "indexed": false,
          "name": "price",
          "type": "uint256"
        },
        {
          "indexed": false,
          "name": "owner",
          "type": "address"
        }
      ],
      "name": "TokenCreated",
      "type": "event"
    },
    {
      "anonymous": false,
      "inputs": [
        {
          "indexed": true,
          "name": "tokenId",
          "type": "uint256"
        },
        {
          "indexed": false,
          "name": "name",
          "type": "string"
        },
        {
          "indexed": false,
          "name": "link",
          "type": "string"
        },
        {
          "indexed": false,
          "name": "sellingPrice",
          "type": "uint256"
        },
        {
          "indexed": false,
          "name": "newPrice",
          "type": "uint256"
        },
        {
          "indexed": true,
          "name": "oldOwner",
          "type": "address"
        },
        {
          "indexed": true,
          "name": "newOwner",
          "type": "address"
        }
      ],
      "name": "TokenSold",
      "type": "event"
    },
    {
      "anonymous": false,
      "inputs": [
        {
          "indexed": true,
          "name": "_from",
          "type": "address"
        },
        {
          "indexed": true,
          "name": "_to",
          "type": "address"
        },
        {
          "indexed": false,
          "name": "_tokenId",
          "type": "uint256"
        }
      ],
      "name": "Transfer",
      "type": "event"
    },
    {
      "anonymous": false,
      "inputs": [
        {
          "indexed": true,
          "name": "_owner",
          "type": "address"
        },
        {
          "indexed": true,
          "name": "_approved",
          "type": "address"
        },
        {
          "indexed": false,
          "name": "_tokenId",
          "type": "uint256"
        }
      ],
      "name": "Approval",
      "type": "event"
    },
    {
      "constant": false,
      "inputs": [
        {
          "name": "_name",
          "type": "string"
        },
        {
          "name": "_link",
          "type": "string"
        },
        {
          "name": "_owner",
          "type": "address"
        },
        {
          "name": "_price",
          "type": "uint256"
        }
      ],
      "name": "createToken",
      "outputs": [],
      "payable": false,
      "stateMutability": "nonpayable",
      "type": "function"
    },
    {
      "constant": false,
      "inputs": [
        {
          "name": "_name",
          "type": "string"
        },
        {
          "name": "_link",
          "type": "string"
        }
      ],
      "name": "createToken",
      "outputs": [],
      "payable": false,
      "stateMutability": "nonpayable",
      "type": "function"
    },
    {
      "constant": true,
      "inputs": [
        {
          "name": "_tokenId",
          "type": "uint256"
        }
      ],
      "name": "getToken",
      "outputs": [
        {
          "name": "_tokenName",
          "type": "string"
        },
        {
          "name": "_link",
          "type": "string"
        },
        {
          "name": "_price",
          "type": "uint256"
        },
        {
          "name": "_nextPrice",
          "type": "uint256"
        },
        {
          "name": "_owner",
          "type": "address"
        }
      ],
      "payable": false,
      "stateMutability": "view",
      "type": "function"
    },
    {
      "constant": true,
      "inputs": [],
      "name": "getAllTokens",
      "outputs": [
        {
          "name": "",
          "type": "uint256[]"
        },
        {
          "name": "",
          "type": "uint256[]"
        },
        {
          "name": "",
          "type": "address[]"
        }
      ],
      "payable": false,
      "stateMutability": "view",
      "type": "function"
    },
    {
      "constant": true,
      "inputs": [
        {
          "name": "_owner",
          "type": "address"
        }
      ],
      "name": "tokensOf",
      "outputs": [
        {
          "name": "",
          "type": "uint256[]"
        }
      ],
      "payable": false,
      "stateMutability": "view",
      "type": "function"
    },
    {
      "constant": false,
      "inputs": [
        {
          "name": "_to",
          "type": "address"
        },
        {
          "name": "_amount",
          "type": "uint256"
        }
      ],
      "name": "withdrawBalance",
      "outputs": [],
      "payable": false,
      "stateMutability": "nonpayable",
      "type": "function"
    },
    {
      "constant": false,
      "inputs": [
        {
          "name": "_tokenId",
          "type": "uint256"
        }
      ],
      "name": "purchase",
      "outputs": [],
      "payable": true,
      "stateMutability": "payable",
      "type": "function"
    },
    {
      "constant": true,
      "inputs": [
        {
          "name": "_tokenId",
          "type": "uint256"
        }
      ],
      "name": "priceOf",
      "outputs": [
        {
          "name": "",
          "type": "uint256"
        }
      ],
      "payable": false,
      "stateMutability": "view",
      "type": "function"
    },
    {
      "constant": true,
      "inputs": [
        {
          "name": "_tokenId",
          "type": "uint256"
        }
      ],
      "name": "nextPriceOf",
      "outputs": [
        {
          "name": "_nextPrice",
          "type": "uint256"
        }
      ],
      "payable": false,
      "stateMutability": "view",
      "type": "function"
    },
    {
      "constant": false,
      "inputs": [],
      "name": "enableERC721",
      "outputs": [],
      "payable": false,
      "stateMutability": "nonpayable",
      "type": "function"
    },
    {
      "constant": true,
      "inputs": [],
      "name": "totalSupply",
      "outputs": [
        {
          "name": "_totalSupply",
          "type": "uint256"
        }
      ],
      "payable": false,
      "stateMutability": "view",
      "type": "function"
    },
    {
      "constant": true,
      "inputs": [
        {
          "name": "_owner",
          "type": "address"
        }
      ],
      "name": "balanceOf",
      "outputs": [
        {
          "name": "_balance",
          "type": "uint256"
        }
      ],
      "payable": false,
      "stateMutability": "view",
      "type": "function"
    },
    {
      "constant": true,
      "inputs": [
        {
          "name": "_tokenId",
          "type": "uint256"
        }
      ],
      "name": "ownerOf",
      "outputs": [
        {
          "name": "_owner",
          "type": "address"
        }
      ],
      "payable": false,
      "stateMutability": "view",
      "type": "function"
    },
    {
      "constant": false,
      "inputs": [
        {
          "name": "_to",
          "type": "address"
        },
        {
          "name": "_tokenId",
          "type": "uint256"
        }
      ],
      "name": "approve",
      "outputs": [],
      "payable": false,
      "stateMutability": "nonpayable",
      "type": "function"
    },
    {
      "constant": false,
      "inputs": [
        {
          "name": "_from",
          "type": "address"
        },
        {
          "name": "_to",
          "type": "address"
        },
        {
          "name": "_tokenId",
          "type": "uint256"
        }
      ],
      "name": "transferFrom",
      "outputs": [],
      "payable": false,
      "stateMutability": "nonpayable",
      "type": "function"
    },
    {
      "constant": false,
      "inputs": [
        {
          "name": "_to",
          "type": "address"
        },
        {
          "name": "_tokenId",
          "type": "uint256"
        }
      ],
      "name": "transfer",
      "outputs": [],
      "payable": false,
      "stateMutability": "nonpayable",
      "type": "function"
    },
    {
      "constant": true,
      "inputs": [],
      "name": "implementsERC721",
      "outputs": [
        {
          "name": "",
          "type": "bool"
        }
      ],
      "payable": false,
      "stateMutability": "view",
      "type": "function"
    },
    {
      "constant": false,
      "inputs": [
        {
          "name": "_tokenId",
          "type": "uint256"
        }
      ],
      "name": "takeOwnership",
      "outputs": [],
      "payable": false,
      "stateMutability": "nonpayable",
      "type": "function"
    },
    {
      "constant": true,
      "inputs": [],
      "name": "name",
      "outputs": [
        {
          "name": "_name",
          "type": "string"
        }
      ],
      "payable": false,
      "stateMutability": "view",
      "type": "function"
    },
    {
      "constant": true,
      "inputs": [],
      "name": "symbol",
      "outputs": [
        {
          "name": "_symbol",
          "type": "string"
        }
      ],
      "payable": false,
      "stateMutability": "view",
      "type": "function"
    }
  ],
  "bytecode": "0x60606040526000600160146101000a81548160ff021916908315150217905550662386f26fc100006007556000600860006101000a81548160ff02191690831515021790555066470de4df8200006009556706f05b59d3b20000600a55671bc16d674ec80000600b55674563918244f40000600c55336000806101000a81548173ffffffffffffffffffffffffffffffffffffffff021916908373ffffffffffffffffffffffffffffffffffffffff16021790555033600160006101000a81548173ffffffffffffffffffffffffffffffffffffffff021916908373ffffffffffffffffffffffffffffffffffffffff16021790555061279a806101046000396000f30060606040526004361061015f576000357c0100000000000000000000000000000000000000000000000000000000900463ffffffff16806306fdde0314610164578063095ea7b3146101f25780630a0f8168146102345780630cf20cc9146102895780631051db34146102cb57806318160ddd146102f857806321c163341461032157806323b872dd146103e957806327d7874c1461044a5780632a5c792a146104835780632ba73c151461057d5780632f2f2d56146105b65780633f4ba83a146106565780635a3f26721461066b5780635ba9e48e146106f95780635c975abb146107305780636352211e1461075d57806370a08231146107c057806371dc761e1461080d5780638456cb591461082257806395d89b4114610837578063a9059cbb146108c5578063b047fb5014610907578063b2e6ceeb1461095c578063b9186d7d1461097f578063e4b50cb8146109b6578063efef39a114610aff575b600080fd5b341561016f57600080fd5b610177610b17565b6040518080602001828103825283818151815260200191508051906020019080838360005b838110156101b757808201518184015260208101905061019c565b50505050905090810190601f1680156101e45780820380516001836020036101000a031916815260200191505b509250505060405180910390f35b34156101fd57600080fd5b610232600480803573ffffffffffffffffffffffffffffffffffffffff16906020019091908035906020019091905050610b5a565b005b341561023f57600080fd5b610247610c61565b604051808273ffffffffffffffffffffffffffffffffffffffff1673ffffffffffffffffffffffffffffffffffffffff16815260200191505060405180910390f35b341561029457600080fd5b6102c9600480803573ffffffffffffffffffffffffffffffffffffffff16906020019091908035906020019091905050610c86565b005b34156102d657600080fd5b6102de610e0b565b604051808215151515815260200191505060405180910390f35b341561030357600080fd5b61030b610e3e565b6040518082815260200191505060405180910390f35b341561032c57600080fd5b6103e7600480803590602001908201803590602001908080601f0160208091040260200160405190810160405280939291908181526020018383808284378201915050505050509190803590602001908201803590602001908080601f0160208091040260200160405190810160405280939291908181526020018383808284378201915050505050509190803573ffffffffffffffffffffffffffffffffffffffff16906020019091908035906020019091905050610e4b565b005b34156103f457600080fd5b610448600480803573ffffffffffffffffffffffffffffffffffffffff1690602001909190803573ffffffffffffffffffffffffffffffffffffffff16906020019091908035906020019091905050610f5d565b005b341561045557600080fd5b610481600480803573ffffffffffffffffffffffffffffffffffffffff1690602001909190505061100a565b005b341561048e57600080fd5b6104966110e4565b60405180806020018060200180602001848103845287818151815260200191508051906020019060200280838360005b838110156104e15780820151818401526020810190506104c6565b50505050905001848103835286818151815260200191508051906020019060200280838360005b83811015610523578082015181840152602081019050610508565b50505050905001848103825285818151815260200191508051906020019060200280838360005b8381101561056557808201518184015260208101905061054a565b50505050905001965050505050505060405180910390f35b341561058857600080fd5b6105b4600480803573ffffffffffffffffffffffffffffffffffffffff16906020019091905050611285565b005b34156105c157600080fd5b610654600480803590602001908201803590602001908080601f0160208091040260200160405190810160405280939291908181526020018383808284378201915050505050509190803590602001908201803590602001908080601f01602080910402602001604051908101604052809392919081815260200183838082843782019150505050505091905050611360565b005b341561066157600080fd5b610669611425565b005b341561067657600080fd5b6106a2600480803573ffffffffffffffffffffffffffffffffffffffff169060200190919050506114b8565b6040518080602001828103825283818151815260200191508051906020019060200280838360005b838110156106e55780820151818401526020810190506106ca565b505050509050019250505060405180910390f35b341561070457600080fd5b61071a60048080359060200190919050506115ee565b6040518082815260200191505060405180910390f35b341561073b57600080fd5b61074361170c565b604051808215151515815260200191505060405180910390f35b341561076857600080fd5b61077e600480803590602001909190505061171f565b604051808273ffffffffffffffffffffffffffffffffffffffff1673ffffffffffffffffffffffffffffffffffffffff16815260200191505060405180910390f35b34156107cb57600080fd5b6107f7600480803573ffffffffffffffffffffffffffffffffffffffff1690602001909190505061175c565b6040518082815260200191505060405180910390f35b341561081857600080fd5b6108206117a5565b005b341561082d57600080fd5b61083561181d565b005b341561084257600080fd5b61084a6118b0565b6040518080602001828103825283818151815260200191508051906020019080838360005b8381101561088a57808201518184015260208101905061086f565b50505050905090810190601f1680156108b75780820380516001836020036101000a031916815260200191505b509250505060405180910390f35b34156108d057600080fd5b610905600480803573ffffffffffffffffffffffffffffffffffffffff169060200190919080359060200190919050506118f3565b005b341561091257600080fd5b61091a61198a565b604051808273ffffffffffffffffffffffffffffffffffffffff1673ffffffffffffffffffffffffffffffffffffffff16815260200191505060405180910390f35b341561096757600080fd5b61097d60048080359060200190919050506119b0565b005b341561098a57600080fd5b6109a06004808035906020019091905050611a3d565b6040518082815260200191505060405180910390f35b34156109c157600080fd5b6109d76004808035906020019091905050611a5a565b6040518080602001806020018681526020018581526020018473ffffffffffffffffffffffffffffffffffffffff1673ffffffffffffffffffffffffffffffffffffffff168152602001838103835288818151815260200191508051906020019080838360005b83811015610a59578082015181840152602081019050610a3e565b50505050905090810190601f168015610a865780820380516001836020036101000a031916815260200191505b50838103825287818151815260200191508051906020019080838360005b83811015610abf578082015181840152602081019050610aa4565b50505050905090810190601f168015610aec5780820380516001836020036101000a031916815260200191505b5097505050505050505060405180910390f35b610b156004808035906020019091905050611c45565b005b610b1f61259a565b6040805190810160405280600981526020017f4e69667479204172740000000000000000000000000000000000000000000000815250905090565b600160149054906101000a900460ff16151515610b7657600080fd5b600860009054906101000a900460ff161515610b9157600080fd5b610b9b3382612073565b1515610ba657600080fd5b816005600083815260200190815260200160002060006101000a81548173ffffffffffffffffffffffffffffffffffffffff021916908373ffffffffffffffffffffffffffffffffffffffff1602179055508173ffffffffffffffffffffffffffffffffffffffff163373ffffffffffffffffffffffffffffffffffffffff167f8c5be1e5ebec7d5bd14f71427d1e84f3dd0314c0f7b2291e5b200ac8c7c3b925836040518082815260200191505060405180910390a35050565b6000809054906101000a900473ffffffffffffffffffffffffffffffffffffffff1681565b6000809054906101000a900473ffffffffffffffffffffffffffffffffffffffff1673ffffffffffffffffffffffffffffffffffffffff163373ffffffffffffffffffffffffffffffffffffffff16141515610ce157600080fd5b3073ffffffffffffffffffffffffffffffffffffffff16318111151515610d0757600080fd5b6000811415610d2b573073ffffffffffffffffffffffffffffffffffffffff163190505b600073ffffffffffffffffffffffffffffffffffffffff168273ffffffffffffffffffffffffffffffffffffffff161415610dc6576000809054906101000a900473ffffffffffffffffffffffffffffffffffffffff1673ffffffffffffffffffffffffffffffffffffffff166108fc829081150290604051600060405180830381858888f193505050501515610dc157600080fd5b610e07565b8173ffffffffffffffffffffffffffffffffffffffff166108fc829081150290604051600060405180830381858888f193505050501515610e0657600080fd5b5b5050565b6000600160149054906101000a900460ff16151515610e2957600080fd5b600860009054906101000a900460ff16905090565b6000600680549050905090565b6000809054906101000a900473ffffffffffffffffffffffffffffffffffffffff1673ffffffffffffffffffffffffffffffffffffffff163373ffffffffffffffffffffffffffffffffffffffff161480610ef35750600160009054906101000a900473ffffffffffffffffffffffffffffffffffffffff1673ffffffffffffffffffffffffffffffffffffffff163373ffffffffffffffffffffffffffffffffffffffff16145b1515610efe57600080fd5b600073ffffffffffffffffffffffffffffffffffffffff168273ffffffffffffffffffffffffffffffffffffffff1614151515610f3a57600080fd5b6007548110151515610f4b57600080fd5b610f57848484846120df565b50505050565b600160149054906101000a900460ff16151515610f7957600080fd5b600860009054906101000a900460ff161515610f9457600080fd5b600073ffffffffffffffffffffffffffffffffffffffff168273ffffffffffffffffffffffffffffffffffffffff1614151515610fd057600080fd5b610fda8382612073565b1515610fe557600080fd5b610fef33826122e4565b1515610ffa57600080fd5b611005838383612350565b505050565b6000809054906101000a900473ffffffffffffffffffffffffffffffffffffffff1673ffffffffffffffffffffffffffffffffffffffff163373ffffffffffffffffffffffffffffffffffffffff1614151561106557600080fd5b600073ffffffffffffffffffffffffffffffffffffffff168173ffffffffffffffffffffffffffffffffffffffff16141515156110a157600080fd5b806000806101000a81548173ffffffffffffffffffffffffffffffffffffffff021916908373ffffffffffffffffffffffffffffffffffffffff16021790555050565b6110ec6125ae565b6110f46125ae565b6110fc6125c2565b60006111066125ae565b61110e6125ae565b6111166125c2565b6000611120610e3e565b9450846040518059106111305750595b90808252806020026020018201604052509350846040518059106111515750595b90808252806020026020018201604052509250846040518059106111725750595b90808252806020026020018201604052509150600090505b8481101561127257600360008281526020019081526020016000205484828151811015156111b457fe5b90602001906020020181815250506111cb816115ee565b83828151811015156111d957fe5b90602001906020020181815250506002600082815260200190815260200160002060009054906101000a900473ffffffffffffffffffffffffffffffffffffffff16828281518110151561122957fe5b9060200190602002019073ffffffffffffffffffffffffffffffffffffffff16908173ffffffffffffffffffffffffffffffffffffffff1681525050808060010191505061118a565b8383839750975097505050505050909192565b6000809054906101000a900473ffffffffffffffffffffffffffffffffffffffff1673ffffffffffffffffffffffffffffffffffffffff163373ffffffffffffffffffffffffffffffffffffffff161415156112e057600080fd5b600073ffffffffffffffffffffffffffffffffffffffff168173ffffffffffffffffffffffffffffffffffffffff161415151561131c57600080fd5b80600160006101000a81548173ffffffffffffffffffffffffffffffffffffffff021916908373ffffffffffffffffffffffffffffffffffffffff16021790555050565b6000809054906101000a900473ffffffffffffffffffffffffffffffffffffffff1673ffffffffffffffffffffffffffffffffffffffff163373ffffffffffffffffffffffffffffffffffffffff1614806114085750600160009054906101000a900473ffffffffffffffffffffffffffffffffffffffff1673ffffffffffffffffffffffffffffffffffffffff163373ffffffffffffffffffffffffffffffffffffffff16145b151561141357600080fd5b6114218282306007546120df565b5050565b6000809054906101000a900473ffffffffffffffffffffffffffffffffffffffff1673ffffffffffffffffffffffffffffffffffffffff163373ffffffffffffffffffffffffffffffffffffffff1614151561148057600080fd5b600160149054906101000a900460ff16151561149b57600080fd5b6000600160146101000a81548160ff021916908315150217905550565b6114c06125ae565b60006114ca6125ae565b60008060006114d88761175c565b9450600085141561150a5760006040518059106114f25750595b908082528060200260200182016040525095506115e4565b846040518059106115185750595b90808252806020026020018201604052509350611533610e3e565b925060009150600090505b828110156115e0578673ffffffffffffffffffffffffffffffffffffffff166002600083815260200190815260200160002060009054906101000a900473ffffffffffffffffffffffffffffffffffffffff1673ffffffffffffffffffffffffffffffffffffffff1614156115d3578084838151811015156115bc57fe5b906020019060200201818152505081806001019250505b808060010191505061153e565b8395505b5050505050919050565b6000806115fa83611a3d565b90506009548110156116345761162d605f61161f60c88461251890919063ffffffff16565b61255390919063ffffffff16565b9150611706565b600a5481101561166c57611665606061165760878461251890919063ffffffff16565b61255390919063ffffffff16565b9150611706565b600b548110156116a45761169d606161168f607d8461251890919063ffffffff16565b61255390919063ffffffff16565b9150611706565b600c548110156116dc576116d560616116c760758461251890919063ffffffff16565b61255390919063ffffffff16565b9150611706565b61170360626116f560738461251890919063ffffffff16565b61255390919063ffffffff16565b91505b50919050565b600160149054906101000a900460ff1681565b60006002600083815260200190815260200160002060009054906101000a900473ffffffffffffffffffffffffffffffffffffffff169050919050565b6000600460008373ffffffffffffffffffffffffffffffffffffffff1673ffffffffffffffffffffffffffffffffffffffff168152602001908152602001600020549050919050565b6000809054906101000a900473ffffffffffffffffffffffffffffffffffffffff1673ffffffffffffffffffffffffffffffffffffffff163373ffffffffffffffffffffffffffffffffffffffff1614151561180057600080fd5b6001600860006101000a81548160ff021916908315150217905550565b6000809054906101000a900473ffffffffffffffffffffffffffffffffffffffff1673ffffffffffffffffffffffffffffffffffffffff163373ffffffffffffffffffffffffffffffffffffffff1614151561187857600080fd5b600160149054906101000a900460ff1615151561189457600080fd5b60018060146101000a81548160ff021916908315150217905550565b6118b861259a565b6040805190810160405280600381526020017f4e54410000000000000000000000000000000000000000000000000000000000815250905090565b600160149054906101000a900460ff1615151561190f57600080fd5b600860009054906101000a900460ff16151561192a57600080fd5b600073ffffffffffffffffffffffffffffffffffffffff168273ffffffffffffffffffffffffffffffffffffffff161415151561196657600080fd5b6119703382612073565b151561197b57600080fd5b611986338383612350565b5050565b600160009054906101000a900473ffffffffffffffffffffffffffffffffffffffff1681565b600160149054906101000a900460ff161515156119cc57600080fd5b600860009054906101000a900460ff1615156119e757600080fd5b6119f133826122e4565b15156119fc57600080fd5b611a3a6002600083815260200190815260200160002060009054906101000a900473ffffffffffffffffffffffffffffffffffffffff163383612350565b50565b600060036000838152602001908152602001600020549050919050565b611a6261259a565b611a6a61259a565b6000806000600686815481101515611a7e57fe5b90600052602060002090600202016000018054600181600116156101000203166002900480601f016020809104026020016040519081016040528092919081815260200182805460018160011615610100020316600290048015611b235780601f10611af857610100808354040283529160200191611b23565b820191906000526020600020905b815481529060010190602001808311611b0657829003601f168201915b50505050509450600686815481101515611b3957fe5b90600052602060002090600202016001018054600181600116156101000203166002900480601f016020809104026020016040519081016040528092919081815260200182805460018160011615610100020316600290048015611bde5780601f10611bb357610100808354040283529160200191611bde565b820191906000526020600020905b815481529060010190602001808311611bc157829003601f168201915b5050505050935060036000878152602001908152602001600020549250611c04866115ee565b91506002600087815260200190815260200160002060009054906101000a900473ffffffffffffffffffffffffffffffffffffffff16905091939590929450565b6000806000806000600160149054906101000a900460ff16151515611c6957600080fd5b611c728661171f565b9450339350611c8086611a3d565b9250600073ffffffffffffffffffffffffffffffffffffffff168573ffffffffffffffffffffffffffffffffffffffff1614151515611cbe57600080fd5b600073ffffffffffffffffffffffffffffffffffffffff168473ffffffffffffffffffffffffffffffffffffffff1614151515611cfa57600080fd5b8373ffffffffffffffffffffffffffffffffffffffff168573ffffffffffffffffffffffffffffffffffffffff1614151515611d3557600080fd5b611d3e8461256e565b151515611d4a57600080fd5b600083111515611d5957600080fd5b823410151515611d6857600080fd5b611d73858588612350565b611d7c866115ee565b60036000888152602001908152602001600020819055508373ffffffffffffffffffffffffffffffffffffffff168573ffffffffffffffffffffffffffffffffffffffff16877fd4f2a52cba0a2c0e0c09dde2a49dd04f87a40e2b8ce90bb5723ba6b0d950203d60068a815481101515611df257fe5b906000526020600020906002020160000160068b815481101515611e1257fe5b906000526020600020906002020160010188611e2d8d611a3d565b604051808060200180602001858152602001848152602001838103835287818154600181600116156101000203166002900481526020019150805460018160011615610100020316600290048015611ec65780601f10611e9b57610100808354040283529160200191611ec6565b820191906000526020600020905b815481529060010190602001808311611ea957829003601f168201915b5050838103825286818154600181600116156101000203166002900481526020019150805460018160011615610100020316600290048015611f495780601f10611f1e57610100808354040283529160200191611f49565b820191906000526020600020905b815481529060010190602001808311611f2c57829003601f168201915b5050965050505050505060405180910390a4611f6e833461258190919063ffffffff16565b9150611f976064611f8960068661251890919063ffffffff16565b61255390919063ffffffff16565b90503073ffffffffffffffffffffffffffffffffffffffff168573ffffffffffffffffffffffffffffffffffffffff16141515612021578473ffffffffffffffffffffffffffffffffffffffff166108fc611ffb838661258190919063ffffffff16565b9081150290604051600060405180830381858888f19350505050151561202057600080fd5b5b600082111561206b578373ffffffffffffffffffffffffffffffffffffffff166108fc839081150290604051600060405180830381858888f19350505050151561206a57600080fd5b5b505050505050565b60008273ffffffffffffffffffffffffffffffffffffffff166002600084815260200190815260200160002060009054906101000a900473ffffffffffffffffffffffffffffffffffffffff1673ffffffffffffffffffffffffffffffffffffffff1614905092915050565b6120e76125d6565b6000604080519081016040528087815260200186815250915060016006805480600101828161211691906125fc565b91600052602060002090600202016000859091909150600082015181600001908051906020019061214892919061262e565b50602082015181600101908051906020019061216592919061262e565b5050500390508260036000838152602001908152602001600020819055507fe35b753df5e60b403cc8967251ddfe52897faffcde86aee663382e991bd8f67781878786886040518086815260200180602001806020018581526020018473ffffffffffffffffffffffffffffffffffffffff1673ffffffffffffffffffffffffffffffffffffffff168152602001838103835287818151815260200191508051906020019080838360005b8381101561222b578082015181840152602081019050612210565b50505050905090810190601f1680156122585780820380516001836020036101000a031916815260200191505b50838103825286818151815260200191508051906020019080838360005b83811015612291578082015181840152602081019050612276565b50505050905090810190601f1680156122be5780820380516001836020036101000a031916815260200191505b5097505050505050505060405180910390a16122dc60008583612350565b505050505050565b60008273ffffffffffffffffffffffffffffffffffffffff166005600084815260200190815260200160002060009054906101000a900473ffffffffffffffffffffffffffffffffffffffff1673ffffffffffffffffffffffffffffffffffffffff1614905092915050565b600460008373ffffffffffffffffffffffffffffffffffffffff1673ffffffffffffffffffffffffffffffffffffffff16815260200190815260200160002060008154809291906001019190505550816002600083815260200190815260200160002060006101000a81548173ffffffffffffffffffffffffffffffffffffffff021916908373ffffffffffffffffffffffffffffffffffffffff160217905550600073ffffffffffffffffffffffffffffffffffffffff168373ffffffffffffffffffffffffffffffffffffffff161415156124ae57600460008473ffffffffffffffffffffffffffffffffffffffff1673ffffffffffffffffffffffffffffffffffffffff16815260200190815260200160002060008154809291906001900391905055506005600082815260200190815260200160002060006101000a81549073ffffffffffffffffffffffffffffffffffffffff02191690555b8173ffffffffffffffffffffffffffffffffffffffff168373ffffffffffffffffffffffffffffffffffffffff167fddf252ad1be2c89b69c2b068fc378daa952ba7f163c4a11628f55a4df523b3ef836040518082815260200191505060405180910390a3505050565b600080600084141561252d576000915061254c565b828402905082848281151561253e57fe5b0414151561254857fe5b8091505b5092915050565b600080828481151561256157fe5b0490508091505092915050565b600080823b905060008111915050919050565b600082821115151561258f57fe5b818303905092915050565b602060405190810160405280600081525090565b602060405190810160405280600081525090565b602060405190810160405280600081525090565b60408051908101604052806125e96126ae565b81526020016125f66126ae565b81525090565b8154818355818115116126295760020281600202836000526020600020918201910161262891906126c2565b5b505050565b828054600181600116156101000203166002900490600052602060002090601f016020900481019282601f1061266f57805160ff191683800117855561269d565b8280016001018555821561269d579182015b8281111561269c578251825591602001919060010190612681565b5b5090506126aa9190612701565b5090565b602060405190810160405280600081525090565b6126fe91905b808211156126fa57600080820160006126e19190612726565b6001820160006126f19190612726565b506002016126c8565b5090565b90565b61272391905b8082111561271f576000816000905550600101612707565b5090565b90565b50805460018160011615610100020316600290046000825580601f1061274c575061276b565b601f01602090049060005260206000209081019061276a9190612701565b5b505600a165627a7a72305820ce040143248a50ac2fbca437e155721bc91fdc8af06363026d479562d1fe53170029",
  "source": "pragma solidity ^0.4.18;\n\n/*\n * AccessControl.sol - Adds acess modifiers to CEO and COO \n *                 (effectively admin) roles\n * \n * ERC721.sol - Creates deferred functions that need to be implemented to \n * \t\t\t\t   meet the ERC721 standard\n *\n * SafeMath.sol - Math free from overflows, mainly for \n * \t     \t       use in payable functions\n */\n \nimport \"./AccessControl.sol\";\nimport \"./ERC721.sol\";\nimport \"./SafeMath.sol\";\n\ncontract DetailedERC721 is ERC721 {\n\tfunction name() public view returns (string _name);\n\tfunction symbol() public view returns (string _symbol);\n}\n\ncontract NiftyArt is AccessControl, DetailedERC721{\n\tusing SafeMath for uint256;\n\n\tevent TokenCreated(uint256 tokenId, string name, string link, uint256 price, address owner);\n\tevent TokenSold(uint256 indexed tokenId, string name, string link, uint256 sellingPrice, uint256 newPrice, address indexed oldOwner, address indexed newOwner);\n\n\tmapping (uint256 => address) private tokenIdToOwner;\n\tmapping (uint256 => uint256) private tokenIdToPrice;\n\tmapping (address => uint256) private ownershipTokenCount;\n\n\t// To keep track of whether or not a transaction is approved\n\t//   in order to allow transfer between ERC721 platforms\n\tmapping (uint256 => address) private tokenIdToApproved;\n\n\tstruct Art{\n\t\tstring name;\n\t\tstring link;\n\t}\n\n\tArt[] private arts;\n\n\tuint256 private startingPrice = 0.01 ether;\n\n\t// Acts as a toggle between erc 20 and erc 721 for exchange compatibility\n\tbool private erc721Enabled = false;\n\n\tmodifier onlyERC721() {\n\t\trequire(erc721Enabled);\n\t\t_;\n\t}\n\n\t// Token creation and access functions\n\n\t// Allows us to deposit into an address as opposed to auctioning it\n\tfunction createToken(string _name, string _link, address _owner, uint256 _price) public onlyCLevel {\n\t\trequire(_owner != address(0));\n\t\trequire (_price >= startingPrice);\n\n\t\t_createToken(_name, _link, _owner, _price);\n\t}\n\n\t// Creates token and deposits it into the smart contract's address\n\tfunction createToken(string _name, string _link) public onlyCLevel {\n\t\t_createToken(_name, _link, address(this), startingPrice);\n\t}\n\n\tfunction _createToken(string _name, string _link, address _owner, uint256 _price) private {\n\t\tArt memory _art = Art({\n\t\t\tname: _name,\n\t\t\tlink: _link\n\t\t});\n\t\tuint256 newTokenId = arts.push(_art) - 1;\n\t\ttokenIdToPrice[newTokenId] = _price;\n\n\t\tTokenCreated(newTokenId, _name, _link, _price, _owner);\n\t\t_transfer(address(0), _owner, newTokenId);\n\t}\n\n\tfunction getToken(uint256 _tokenId) public view returns (\n\t\tstring _tokenName,\n\t\tstring _link,\n\t\tuint256 _price,\n\t\tuint256 _nextPrice,\n\t\taddress _owner\n\t) {\n\t\t_tokenName = arts[_tokenId].name;\n\t\t_link = arts[_tokenId].link;\n\t\t_price = tokenIdToPrice[_tokenId];\n\t\t_nextPrice = nextPriceOf(_tokenId);\n\t\t_owner = tokenIdToOwner[_tokenId];\n\t}\n\n\tfunction getAllTokens() public view returns (\n\t\tuint256[],\n\t\tuint256[],\n\t\taddress[]\n\t) {\n\t\tuint256 total = totalSupply();\n\t\tuint256[] memory prices = new uint256[](total);\n\t\tuint256[] memory nextPrices = new uint256[](total);\n\t\taddress[] memory owners = new address[](total);\n\n\t\tfor (uint256 i = 0; i < total; i++){\n\t\t\tprices[i] = tokenIdToPrice[i];\n\t\t\tnextPrices[i] = nextPriceOf(i);\n\t\t\towners[i] = tokenIdToOwner[i];\n\t\t}\n\n\t\treturn (prices, nextPrices, owners);\n\t}\n\n\tfunction tokensOf(address _owner) public view returns (uint256[]) {\n\t\tuint256 tokenCount = balanceOf(_owner);\n\t\tif (tokenCount == 0){\n\t\t\treturn new uint256[](0);\n\t\t}\n\t\telse{\n\t\t\tuint256[] memory result = new uint256[](tokenCount);\n\t\t\tuint256 total = totalSupply();\n\t\t\tuint256 resultIndex = 0;\n\n\t\t\tfor (uint256 i = 0; i < total; i++){\n\t\t\t\tif (tokenIdToOwner [i] == _owner){\n\t\t\t\t\tresult[resultIndex] = i;\n\t\t\t\t\tresultIndex++;\n\t\t\t\t}\n\t\t\t}\n\t\t\treturn result;\n\t\t}\n\t}\n\n\tfunction withdrawBalance (address _to, uint256 _amount) public onlyCEO {\n\t\trequire(_amount <= this.balance);\n\t\t\n\t\tif (_amount == 0){\n\t\t\t_amount = this.balance;\n\t\t}\n\n\t\tif (_to == address(0)){\n\t\t\tceoAddress.transfer(_amount);\n\t\t} else {\n\t\t\t_to.transfer(_amount);\n\t\t}\n\t}\n\n\tfunction purchase (uint256 _tokenId) public payable whenNotPaused {\n\t\taddress oldOwner = ownerOf(_tokenId);\n\t\taddress newOwner = msg.sender;\n\t\tuint256 sellingPrice = priceOf(_tokenId);\n\n\t\trequire(oldOwner != address(0));\n\t\trequire(newOwner != address(0));\n\t\trequire(oldOwner != newOwner);\n\t\trequire(!_isContract(newOwner));\n\t\trequire(sellingPrice > 0);\n\t\trequire(msg.value >= sellingPrice);\n\n\t\t_transfer(oldOwner, newOwner, _tokenId);\n\t\ttokenIdToPrice[_tokenId] = nextPriceOf(_tokenId);\n\t\tTokenSold(\n\t\t\t_tokenId,\n\t\t\tarts[_tokenId].name,\n\t\t\tarts[_tokenId].link,\n\t\t\tsellingPrice,\n\t\t\tpriceOf(_tokenId),\n\t\t\toldOwner,\n\t\t\tnewOwner\n\t\t);\n\n\t\tuint256 excess = msg.value.sub(sellingPrice);\n\t\tuint256 contractCut = sellingPrice.mul(6).div(100);\n\n\t\tif (oldOwner != address(this)) {\n\t\t\toldOwner.transfer(sellingPrice.sub(contractCut));\n\t\t}\n\n\t\tif (excess > 0) {\n\t\t\tnewOwner.transfer(excess);\n\t\t}\n\t}\n\n\tfunction priceOf(uint256 _tokenId) public view returns (uint256){\n\t\treturn tokenIdToPrice[_tokenId];\n\t}\n\n\tuint256 private increaseLimit1 = 0.02 ether;\n\tuint256 private increaseLimit2 = 0.5 ether;\n\tuint256 private increaseLimit3 = 2.0 ether;\n\tuint256 private increaseLimit4 = 5.0 ether;\n\t\n\tfunction nextPriceOf(uint256 _tokenId) public view returns (uint256 _nextPrice) {\n\t\tuint256 _price = priceOf(_tokenId);\n\t\tif (_price < increaseLimit1) {\n\t\t\treturn _price.mul(200).div(95);\n\t\t} else if (_price < increaseLimit2){\n\t\t\treturn _price.mul(135).div(96);\n\t\t} else if (_price < increaseLimit3){\n\t\t\treturn _price.mul(125).div(97);\n\t\t} else if (_price < increaseLimit4){\n\t\t\treturn _price.mul(117).div(97);\n\t\t} else {\n\t\t\treturn _price.mul(115).div(98);\n\t\t}\n\t}\n\n\tfunction enableERC721() public onlyCEO {\n\t\terc721Enabled = true;\n\t}\n\n\tfunction totalSupply() public view returns (uint256 _totalSupply){\n\t\t_totalSupply = arts.length;\n\t}\n\n\tfunction balanceOf(address _owner) public view returns (uint256 _balance){\n\t\t_balance = ownershipTokenCount[_owner];\n\t}\n\n\tfunction ownerOf(uint256 _tokenId) public view returns (address _owner){\n\t\t_owner = tokenIdToOwner[_tokenId];\n\t}\n\n\tfunction approve(address _to, uint256 _tokenId) public whenNotPaused onlyERC721{\n\t\trequire(_owns(msg.sender, _tokenId));\n\t\ttokenIdToApproved[_tokenId] = _to;\n\t\tApproval(msg.sender, _to, _tokenId);\n\t}\n\n\tfunction transferFrom(address _from, address _to, uint256 _tokenId) public whenNotPaused onlyERC721 {\n\t\trequire(_to != address(0));\n\t\trequire(_owns(_from, _tokenId));\n\t\trequire(_approved(msg.sender, _tokenId));\n\n\t\t_transfer(_from, _to, _tokenId);\n\t}\n\n\tfunction transfer(address _to, uint256 _tokenId) public whenNotPaused onlyERC721 {\n\t\trequire(_to != address(0));\n\t\trequire(_owns(msg.sender, _tokenId));\n\n\t\t_transfer(msg.sender, _to, _tokenId);\n\t}\n\n\tfunction implementsERC721() public view whenNotPaused returns (bool) {\n\t\treturn erc721Enabled;\n\t}\n\n\tfunction takeOwnership(uint256 _tokenId) public whenNotPaused onlyERC721 {\n\t\trequire(_approved(msg.sender, _tokenId));\n\t\t_transfer(tokenIdToOwner[_tokenId], msg.sender, _tokenId);\n\t}\n\n\tfunction name() public view returns (string _name){\n\t\t_name = \"Nifty Art\"; // Name on etherscan when viewed\n\t}\n\n\tfunction symbol() public view returns (string _symbol) {\n\t\t_symbol = \"NTA\";\n\t}\n\n\tfunction _owns(address _claimant, uint256 _tokenId) private view returns (bool) {\n\t\treturn tokenIdToOwner[_tokenId] == _claimant;\n\t}\n\n\tfunction _approved(address _to, uint256 _tokenId) private view returns (bool){\n\t\treturn tokenIdToApproved[_tokenId] == _to;\n\t}\n\n\tfunction _transfer(address _from, address _to, uint256 _tokenId) private {\n\t\townershipTokenCount[_to]++;\n\t\ttokenIdToOwner[_tokenId] = _to;\n\n\t\tif (_from != address(0)){\n\t\t\townershipTokenCount[_from]--;\n\t\t\tdelete tokenIdToApproved[_tokenId];\n\t\t}\n\n\t\tTransfer(_from, _to, _tokenId);\n\t}\n\n\tfunction _isContract(address addr) private view returns (bool){\n\t\tuint256 size;\n\t\tassembly { size := extcodesize(addr) }\n\t\treturn size > 0;\n\t}\n}\n",
  "sourcePath": "/Users/tuandau/Projects/artNftContracts/artContracts/contracts/NiftyArt.sol",
  "compiler": {
    "name": "solc",
    "version": "0.4.18+commit.9cf6e910.Emscripten.clang"
  },
  "schemaVersion": "3.4.0",
  "updatedAt": "2021-05-14T19:27:12.343Z",
  "devdoc": {
    "methods": {
      "pause()": {
        "details": "Pause the smart contract. Only can be called by the CEO"
      },
      "setCEO(address)": {
        "details": "Assigns a new address to act as the CEO. Only available to the current CEO",
        "params": {
          "_newCEO": "The address of the new CEO"
        }
      },
      "setCOO(address)": {
        "details": "Assigns a new address to act as the COO. Only available to the current CEO",
        "params": {
          "_newCOO": "The address of the new COO"
        }
      },
      "unpause()": {
        "details": "Unpauses the smart contract. Only can be called by the CEO"
      }
    }
  },
  "userdoc": {
    "methods": {}
  }
}